S1 SEP G IBA PNOM BB                    4204076303 PRO130831JT5   CH0001062618092017090700          0000000S
000000001                992018201801          000000000152236BRIAN VELAZQUEZ GUILLEN                 001001BNE0056BNE0056OPERACION EXITOSA                                 ^@^@^@^@^@^@^@^@^@^@^@^@^@^@^@^@
000000002                992018201802          000000000102236MARCO A BAEZA GUILLEN                   001001BNE0056BNE0056OPERACION FALLIDA                                 ^@^@^@^@^@^@^@^@^@^@^@^@^@^@^@^@
000000003                992018201803          000000000102236MOISES E GUILLEN SOTO                   001001BNE0056BNE0056OPERACION EXITOSA                                 ^@^@^@^@^@^@^@^@^@^@^@^@^@^@^@^@
000000004                992018201804          000000000102236MOISES E GUILLEN OTRO                   001001BNE0056BNE0056NO EXISTE                                         ^@^@^@^@^@^@^@^@^@^@^@^@^@^@^@^@
000000005                992018201805          000000000102236MARCO A BAEZA OTRO XX                   001001BNE0056BNE0056ERROR NO IDENTIFICADO                             ^@^@^@^@^@^@^@^@^@^@^@^@^@^@^@^@
000000006                992018201825          000000000102236MARCO A BAEZA OTRO XX                   001001BNE0056BNE0056ERROR NO IDENTIFICADO                             ^@^@^@^@^@^@^@^@^@^@^@^@^@^@^@^@
000000007                992018201825          000000000102236MARCO A BAEZA OTRO XX                   
